:030000000204A156
:0C04A100787FE4F6D8FD7581410204E884
:10065A0050617373776F72643A002020202000552E
:10066A006E6C6F636B204661696C65642100556E20
:10067A006C6F636B205375636365656421007573E2
:10068A006520616E792062746E2065786974003223
:09069A00303034303630392020B4
:0F082A00012E000A2F2020202020202020202017
:100763001208A978107C007D007E007F021200D65B
:10077300E510C394044007E510D3940D40047F0CA7
:0707830080027F0F1208B98C
:01078A00224C
:020709008F104F
:10070B001208A978117C007D007E007F021200D6B2
:10071B00E511C394044017E511D3940D5010AB10A1
:0E072B00AD12AF111206A3742B2511F8A61003
:01073900229D
:1006D700E52E60287B067A007D0F7C007F387E0040
:1006E7001207ED7BFF7A06795AE4FDFF1206107BAD
:1006F700FF7A0679647D01E4FF0206107F0812087D
:02070700B92215
:10052D0075100075110075120078137C007D007B2D
:10053D00FF7A0679997E007F0A1200D67F01E4FECC
:10054D0074132EF8E6FD742F2EF8E66D6004E4FFAB
:10055D0080040EBE0AEAEF14601A0470337B067A2B
:10056D00007D0C7C007F387E001207ED7BFF7A0644
:10057D00796980157B067A007D0C7C007F387E00C2
:10058D001207ED7BFF7A067978E4FD7F01120610E4
:10059D007BFF7A0679887D01E4FF120610AB10AA65
:0C05AD0011A912120877EF60F40206D7C3
:0203EC008F0D73
:1003EE00E52E7007E50D60030204A01208A9780E31
:1003FE007C007D007E007F021200D6E50D120154B6
:10040E00043F00044D04045805046609046A0A04F6
:10041E006F0B04740C04780D047C0E04800F04849E
:10042E0010048811048C1204901304941400000418
:10043E0099E52E70047F0180027F008F2E801DE5CE
:10044E000ED394044045E4FF8009E50EC3940D508D
:10045E003A7F0112073A80337F30802C1206D78004
:10046E002A12052D80257F31801E7F32801A7F3320
:10047E0080167F3480127F35800E7F36800A7F375C
:10048E0080067F3880027F39120709E50D6003125E
:02049E000763F2
:0104A0002239
:1005B900E4F508F509F50AF50BF50C1208A07B0618
:1005C9007A007D087C007F387E001207ED7BFF7A78
:1005D90006795AE4FDFF1206107BFF7A0679647DDD
:1005E90001E4FF120610AB09AA0AA90B1208778FBA
:1005F90008E50860F1AB09AA0AA90B7D0112017A85
:070609008F0C1203EC80DFEF
:0B089500EF1FAC0670011E4C70F62235
:10080C00D3EF9400EE940040147D6E7C00ED1D70CF
:0D081C00011CED4C70F7EF1F70E61E80E32D
:0108290022AC
:0C083900043B00000000013A00013900FF
:0908A000D288D2A8D2AFD2B22254
:030003000202CA2C
:1002CA00C0E0C0F0C083C082C0D075D000C000C0FA
:0D02DA0001C002C003C004C005C006C0077B
:1002E700752900752A00752B00752C00752D0030B7
:1002F700B2030203D1752B00752C0020B21B7F01BE
:100307007E0012080C052CE52C7002052BD3940AED
:10031700E52B940040E50203D1C3E52C9408E52BB7
:10032700940050030203D1752B00752C0030B21BCB
:100337007F017E00120895052CE52C7002052BD352
:1003470094F4E52B940140E50203D1752900752A41
:1003570000752B00752C3C20B2177F017E00120818
:1003670095E52C152C7002152BE52C452B70E88094
:100377005930B2127F0A7E00120895052DE52DC36C
:10038700941440ED8044743B2529F8C000E6C3135C
:10039700D000F6E52DC394084009743B2529F8E6FB
:1003A7004480F6752D00052AE52AC3940840A20566
:1003B70029E529C394044096E53BF4B53C0CE53D9B
:0A03C700F4B53E06853D3A75390194
:1003D100D007D006D005D004D003D002D001D00080
:0B03E100D0D0D082D083D0F0D0E0322A
:10087700E539600BE53A120142E4F5397F01227F41
:0208870000224D
:06017A008B0D8A0E890FB7
:10018000E4F510ED60030202111200FC12015401AB
:10019000E40701FF0801EA0901F60C01F30D01E78C
:1001A0001501ED1601F91801F01902021C01DE40DB
:1001B00002084201E14301DB4401D24501D5460179
:1001C000D847020E4A020B5202055A01FC5E00009B
:1001D00002C702026002026502026A02026F0202A4
:1001E0007402027902027E02028302028802028DF8
:1001F00002029202029702029C0202A10202A602DD
:1002000002AB0202B00202B50202BA0202BF02024F
:10021000C4AB0DAA0EA90F1200FC12015402BA00C1
:10022000026F01027402027903027E040283050256
:100230008806028D07029208029709029C0A02AB07
:100240000C02B00D02B50E02BF0F02601202C419FB
:1002500002651A02A11B026A1E02A61F000002C745
:10026000E4F5108062751001805D7510028058758C
:1002700010038053751004804E7510058049751069
:10028000068044751007803F751008803A75100984
:10029000803575100A803075100B802B75100C801E
:1002A0002675100D802175100E801C75100F80179B
:1002B0007510108012751011800D75101280087560
:0902C00010138003751014AF1037
:0102C9002212
:1007AF00C2A700C2A600C2A5008F807F017E0012E3
:0F07BF00080CD2A77F017E0012080CC2A70022EF
:1007CE00C2A700D2A600C2A5008F807F017E0012B4
:0F07DE00080CD2A77F017E0012080CC2A70022D0
:0308B6000207AF87
:0308B9000207AF84
:0308BC000207AF81
:0C0889007F011207AF7F047E0002080C04
:1007ED008C1D8D1E8A1F8B20C2A7E4F53FF540128C
:0F07FD0008B6AF1E1208B9AF201208BC02088957
:100846008D28EF4480FF1207AF7F057E00120895C2
:0C085600AF281207CE7F057E0002089537
:0606A3008F248D258B263B
:1006A900E4F527E524D3940F5023E5257006E524C6
:1006B90025278009E525B4010CE5242440F527AD5B
:0D06C90026FF120846E52404F53F85254074
:0106D6002201
:0A0610008F1D8D1E8B1F8A2089218B
:10061A001208628F23E51D2FFFE433FED3EF9410F7
:10062A00EE648094805028E4F522E522C395235095
:10063A001EE51D2522FFAB1FAA20A921852282754E
:0F064A008300120115FBAD1E1206A3052280DBF3
:01065900227E
:0708A9007B007A00793F2279
:10073A008F10E510700FE53FD39400401B7F101215
:10074A0007AF153F22E510B4010EE53FC3941050E0
:09075A00077F141207AF053F22CE
:10078B00E4F541C2A700D2A600D2A5008580417F27
:10079B0001FE12080CD2A77F017E0012080CC2A723
:0307AB0000AF415B
:0107AE002228
:0608B0001207AF02078BE6
:1004AD000205B9E493A3F8E493A34003F68001F2A7
:1004BD0008DFF48029E493A3F85407240CC8C33350
:1004CD00C4540F4420C8834004F456800146F6DF1F
:1004DD00E4800B010204081020408090082AE47E7D
:1004ED00019360BCA3FF543F30E509541FFEE49314
:1004FD00A360010ECF54C025E060A840B8E493A3DB
:10050D00FAE493A3F8E493A3C8C582C8CAC583CA05
:10051D00F0A3C8C582C8CAC583CADFE9DEE780BEBD
:0108450000B2
:10000600E709F608DFFA8046E709F208DFFA803EDC
:1000160088828C83E709F0A3DFFA8032E309F608C9
:10002600DFFA8078E309F208DFFA807088828C8331
:10003600E309F0A3DFFA806489828A83E0A3F608E5
:10004600DFFA805889828A83E0A3F208DFFA804CBF
:1000560080D280FA80C680D4806980F28033801096
:1000660080A680EA809A80A880DA80E280CA8033FF
:1000760089828A83ECFAE493A3C8C582C8CCC58377
:10008600CCF0A3C8C582C8CCC583CCDFE9DEE78047
:100096000D89828A83E493A3F608DFF9ECFAA9F0C6
:1000A600EDFB2289828A83ECFAE0A3C8C582C8CC1C
:1000B600C583CCF0A3C8C582C8CCC583CCDFEADE35
:1000C600E880DB89828A83E493A3F208DFF980CC97
:1000D60088F0EF60010E4E60C388F0ED2402B40490
:1000E6000050B9F582EB2402B4040050AF23234537
:0600F60082239000567306
:1000FC00BB010689828A83E0225002E722BBFE0202
:09010C00E32289828A83E4932234
:10011500BB010CE58229F582E5833AF583E022509F
:1001250006E92582F8E622BBFE06E92582F8E222E9
:0D013500E58229F582E5833AF583E4932203
:10014200BB010689828A83F0225002F722BBFE019C
:02015200F32296
:10015400D083D082F8E4937012740193700DA3A33A
:1001640093F8740193F5828883E47374029368604E
:06017400EFA3A3A380DF4E
:10086200E4FFFE1200FC600C0FEF70010E09E9704C
:05087200F20A80EF22F4
:00000001FF
